{
  "_format": "hh-sol-artifact-1",
  "contractName": "Plots",
  "sourceName": "contracts/Plots.sol",
  "abi": [
    {
      "inputs": [
        {
          "internalType": "address",
          "name": "_tokenAddress",
          "type": "address"
        },
        {
          "internalType": "address",
          "name": "_feeAddress",
          "type": "address"
        }
      ],
      "stateMutability": "nonpayable",
      "type": "constructor"
    },
    {
      "inputs": [],
      "name": "ApprovalCallerNotOwnerNorApproved",
      "type": "error"
    },
    {
      "inputs": [],
      "name": "ApprovalQueryForNonexistentToken",
      "type": "error"
    },
    {
      "inputs": [],
      "name": "BalanceQueryForZeroAddress",
      "type": "error"
    },
    {
      "inputs": [],
      "name": "MintERC2309QuantityExceedsLimit",
      "type": "error"
    },
    {
      "inputs": [],
      "name": "MintToZeroAddress",
      "type": "error"
    },
    {
      "inputs": [],
      "name": "MintZeroQuantity",
      "type": "error"
    },
    {
      "inputs": [],
      "name": "OwnerQueryForNonexistentToken",
      "type": "error"
    },
    {
      "inputs": [],
      "name": "OwnershipNotInitializedForExtraData",
      "type": "error"
    },
    {
      "inputs": [],
      "name": "TransferCallerNotOwnerNorApproved",
      "type": "error"
    },
    {
      "inputs": [],
      "name": "TransferFromIncorrectOwner",
      "type": "error"
    },
    {
      "inputs": [],
      "name": "TransferToNonERC721ReceiverImplementer",
      "type": "error"
    },
    {
      "inputs": [],
      "name": "TransferToZeroAddress",
      "type": "error"
    },
    {
      "inputs": [],
      "name": "URIQueryForNonexistentToken",
      "type": "error"
    },
    {
      "anonymous": false,
      "inputs": [
        {
          "indexed": true,
          "internalType": "address",
          "name": "owner",
          "type": "address"
        },
        {
          "indexed": true,
          "internalType": "address",
          "name": "approved",
          "type": "address"
        },
        {
          "indexed": true,
          "internalType": "uint256",
          "name": "tokenId",
          "type": "uint256"
        }
      ],
      "name": "Approval",
      "type": "event"
    },
    {
      "anonymous": false,
      "inputs": [
        {
          "indexed": true,
          "internalType": "address",
          "name": "owner",
          "type": "address"
        },
        {
          "indexed": true,
          "internalType": "address",
          "name": "operator",
          "type": "address"
        },
        {
          "indexed": false,
          "internalType": "bool",
          "name": "approved",
          "type": "bool"
        }
      ],
      "name": "ApprovalForAll",
      "type": "event"
    },
    {
      "anonymous": false,
      "inputs": [
        {
          "indexed": true,
          "internalType": "uint256",
          "name": "fromTokenId",
          "type": "uint256"
        },
        {
          "indexed": false,
          "internalType": "uint256",
          "name": "toTokenId",
          "type": "uint256"
        },
        {
          "indexed": true,
          "internalType": "address",
          "name": "from",
          "type": "address"
        },
        {
          "indexed": true,
          "internalType": "address",
          "name": "to",
          "type": "address"
        }
      ],
      "name": "ConsecutiveTransfer",
      "type": "event"
    },
    {
      "anonymous": false,
      "inputs": [
        {
          "indexed": true,
          "internalType": "address",
          "name": "previousOwner",
          "type": "address"
        },
        {
          "indexed": true,
          "internalType": "address",
          "name": "newOwner",
          "type": "address"
        }
      ],
      "name": "OwnershipTransferred",
      "type": "event"
    },
    {
      "anonymous": false,
      "inputs": [
        {
          "indexed": true,
          "internalType": "address",
          "name": "from",
          "type": "address"
        },
        {
          "indexed": true,
          "internalType": "address",
          "name": "to",
          "type": "address"
        },
        {
          "indexed": true,
          "internalType": "uint256",
          "name": "tokenId",
          "type": "uint256"
        }
      ],
      "name": "Transfer",
      "type": "event"
    },
    {
      "inputs": [],
      "name": "BATCH_LIMIT",
      "outputs": [
        {
          "internalType": "uint256",
          "name": "",
          "type": "uint256"
        }
      ],
      "stateMutability": "view",
      "type": "function"
    },
    {
      "inputs": [],
      "name": "MAX_MINT_PER_WALLET",
      "outputs": [
        {
          "internalType": "uint256",
          "name": "",
          "type": "uint256"
        }
      ],
      "stateMutability": "view",
      "type": "function"
    },
    {
      "inputs": [],
      "name": "MAX_SUPPLY",
      "outputs": [
        {
          "internalType": "uint256",
          "name": "",
          "type": "uint256"
        }
      ],
      "stateMutability": "view",
      "type": "function"
    },
    {
      "inputs": [
        {
          "internalType": "address",
          "name": "to",
          "type": "address"
        },
        {
          "internalType": "uint256",
          "name": "tokenId",
          "type": "uint256"
        }
      ],
      "name": "approve",
      "outputs": [],
      "stateMutability": "payable",
      "type": "function"
    },
    {
      "inputs": [
        {
          "internalType": "address",
          "name": "owner",
          "type": "address"
        }
      ],
      "name": "balanceOf",
      "outputs": [
        {
          "internalType": "uint256",
          "name": "",
          "type": "uint256"
        }
      ],
      "stateMutability": "view",
      "type": "function"
    },
    {
      "inputs": [],
      "name": "contractURI",
      "outputs": [
        {
          "internalType": "string",
          "name": "",
          "type": "string"
        }
      ],
      "stateMutability": "view",
      "type": "function"
    },
    {
      "inputs": [],
      "name": "fee",
      "outputs": [
        {
          "internalType": "uint256",
          "name": "",
          "type": "uint256"
        }
      ],
      "stateMutability": "view",
      "type": "function"
    },
    {
      "inputs": [],
      "name": "feeAddress",
      "outputs": [
        {
          "internalType": "address",
          "name": "",
          "type": "address"
        }
      ],
      "stateMutability": "view",
      "type": "function"
    },
    {
      "inputs": [
        {
          "internalType": "uint256",
          "name": "tokenId",
          "type": "uint256"
        }
      ],
      "name": "getApproved",
      "outputs": [
        {
          "internalType": "address",
          "name": "",
          "type": "address"
        }
      ],
      "stateMutability": "view",
      "type": "function"
    },
    {
      "inputs": [
        {
          "internalType": "address",
          "name": "owner",
          "type": "address"
        },
        {
          "internalType": "address",
          "name": "operator",
          "type": "address"
        }
      ],
      "name": "isApprovedForAll",
      "outputs": [
        {
          "internalType": "bool",
          "name": "",
          "type": "bool"
        }
      ],
      "stateMutability": "view",
      "type": "function"
    },
    {
      "inputs": [
        {
          "internalType": "uint256",
          "name": "quantity",
          "type": "uint256"
        }
      ],
      "name": "mint",
      "outputs": [],
      "stateMutability": "nonpayable",
      "type": "function"
    },
    {
      "inputs": [],
      "name": "name",
      "outputs": [
        {
          "internalType": "string",
          "name": "",
          "type": "string"
        }
      ],
      "stateMutability": "view",
      "type": "function"
    },
    {
      "inputs": [],
      "name": "owner",
      "outputs": [
        {
          "internalType": "address",
          "name": "",
          "type": "address"
        }
      ],
      "stateMutability": "view",
      "type": "function"
    },
    {
      "inputs": [
        {
          "internalType": "uint256",
          "name": "tokenId",
          "type": "uint256"
        }
      ],
      "name": "ownerOf",
      "outputs": [
        {
          "internalType": "address",
          "name": "",
          "type": "address"
        }
      ],
      "stateMutability": "view",
      "type": "function"
    },
    {
      "inputs": [],
      "name": "paymentToken",
      "outputs": [
        {
          "internalType": "contract IERC20",
          "name": "",
          "type": "address"
        }
      ],
      "stateMutability": "view",
      "type": "function"
    },
    {
      "inputs": [],
      "name": "renounceOwnership",
      "outputs": [],
      "stateMutability": "nonpayable",
      "type": "function"
    },
    {
      "inputs": [
        {
          "internalType": "address",
          "name": "from",
          "type": "address"
        },
        {
          "internalType": "address",
          "name": "to",
          "type": "address"
        },
        {
          "internalType": "uint256",
          "name": "tokenId",
          "type": "uint256"
        }
      ],
      "name": "safeTransferFrom",
      "outputs": [],
      "stateMutability": "payable",
      "type": "function"
    },
    {
      "inputs": [
        {
          "internalType": "address",
          "name": "from",
          "type": "address"
        },
        {
          "internalType": "address",
          "name": "to",
          "type": "address"
        },
        {
          "internalType": "uint256",
          "name": "tokenId",
          "type": "uint256"
        },
        {
          "internalType": "bytes",
          "name": "_data",
          "type": "bytes"
        }
      ],
      "name": "safeTransferFrom",
      "outputs": [],
      "stateMutability": "payable",
      "type": "function"
    },
    {
      "inputs": [
        {
          "internalType": "address",
          "name": "operator",
          "type": "address"
        },
        {
          "internalType": "bool",
          "name": "approved",
          "type": "bool"
        }
      ],
      "name": "setApprovalForAll",
      "outputs": [],
      "stateMutability": "nonpayable",
      "type": "function"
    },
    {
      "inputs": [
        {
          "internalType": "string",
          "name": "baseURI",
          "type": "string"
        }
      ],
      "name": "setBaseURI",
      "outputs": [],
      "stateMutability": "nonpayable",
      "type": "function"
    },
    {
      "inputs": [
        {
          "internalType": "string",
          "name": "newContractURI",
          "type": "string"
        }
      ],
      "name": "setContractURI",
      "outputs": [],
      "stateMutability": "nonpayable",
      "type": "function"
    },
    {
      "inputs": [
        {
          "internalType": "uint256",
          "name": "_fee",
          "type": "uint256"
        }
      ],
      "name": "setFee",
      "outputs": [],
      "stateMutability": "nonpayable",
      "type": "function"
    },
    {
      "inputs": [
        {
          "internalType": "address",
          "name": "_feeAddress",
          "type": "address"
        }
      ],
      "name": "setFeeAddress",
      "outputs": [],
      "stateMutability": "nonpayable",
      "type": "function"
    },
    {
      "inputs": [
        {
          "internalType": "bytes4",
          "name": "interfaceId",
          "type": "bytes4"
        }
      ],
      "name": "supportsInterface",
      "outputs": [
        {
          "internalType": "bool",
          "name": "",
          "type": "bool"
        }
      ],
      "stateMutability": "view",
      "type": "function"
    },
    {
      "inputs": [],
      "name": "symbol",
      "outputs": [
        {
          "internalType": "string",
          "name": "",
          "type": "string"
        }
      ],
      "stateMutability": "view",
      "type": "function"
    },
    {
      "inputs": [
        {
          "internalType": "uint256",
          "name": "tokenId",
          "type": "uint256"
        }
      ],
      "name": "tokenURI",
      "outputs": [
        {
          "internalType": "string",
          "name": "",
          "type": "string"
        }
      ],
      "stateMutability": "view",
      "type": "function"
    },
    {
      "inputs": [],
      "name": "totalSupply",
      "outputs": [
        {
          "internalType": "uint256",
          "name": "",
          "type": "uint256"
        }
      ],
      "stateMutability": "view",
      "type": "function"
    },
    {
      "inputs": [
        {
          "internalType": "address",
          "name": "from",
          "type": "address"
        },
        {
          "internalType": "address",
          "name": "to",
          "type": "address"
        },
        {
          "internalType": "uint256",
          "name": "tokenId",
          "type": "uint256"
        }
      ],
      "name": "transferFrom",
      "outputs": [],
      "stateMutability": "payable",
      "type": "function"
    },
    {
      "inputs": [
        {
          "internalType": "address",
          "name": "newOwner",
          "type": "address"
        }
      ],
      "name": "transferOwnership",
      "outputs": [],
      "stateMutability": "nonpayable",
      "type": "function"
    }
  ],
  "bytecode": "0x608060405269d3c21bcecceda1000000600b553480156200001f57600080fd5b5060405162001a0538038062001a058339810160408190526200004291620001bf565b60405180604001604052806005815260200164506c6f747360d81b81525060405180604001604052806004815260200163141313d560e21b81525081600290816200008e91906200029c565b5060036200009d82826200029c565b50506000805550620000af3362000130565b600a80546001600160a01b038084166001600160a01b031992831617909255600980549285169290911691909117905560408051608081019091526043808252620001049190620019c2602083013962000182565b620001286040518060800160405280604381526020016200197f6043913962000194565b505062000368565b600880546001600160a01b038381166001600160a01b0319831681179093556040519116919082907f8be0079c531659141344cd1fd0a4f28419497f9722a3daafe3b4186f6b6457e090600090a35050565b600c6200019082826200029c565b5050565b600d6200019082826200029c565b80516001600160a01b0381168114620001ba57600080fd5b919050565b60008060408385031215620001d357600080fd5b620001de83620001a2565b9150620001ee60208401620001a2565b90509250929050565b634e487b7160e01b600052604160045260246000fd5b600181811c908216806200022257607f821691505b6020821081036200024357634e487b7160e01b600052602260045260246000fd5b50919050565b601f8211156200029757600081815260208120601f850160051c81016020861015620002725750805b601f850160051c820191505b8181101562000293578281556001016200027e565b5050505b505050565b81516001600160401b03811115620002b857620002b8620001f7565b620002d081620002c984546200020d565b8462000249565b602080601f831160018114620003085760008415620002ef5750858301515b600019600386901b1c1916600185901b17855562000293565b600085815260208120601f198616915b82811015620003395788860151825594840194600190910190840162000318565b5085821015620003585787850151600019600388901b60f8161c191681555b5050505050600190811b01905550565b61160780620003786000396000f3fe6080604052600436106101c25760003560e01c8063715018a6116100f7578063a22cb46511610095578063ddca3f4311610064578063ddca3f4314610499578063e8a3d485146104af578063e985e9c5146104c4578063f2fde38b146104e457600080fd5b8063a22cb46514610446578063b19960e6146103fc578063b88d4fde14610466578063c87b56dd1461047957600080fd5b8063938e3d7b116100d1578063938e3d7b146103dc5780639559c0bd146103fc57806395d89b4114610411578063a0712d681461042657600080fd5b8063715018a6146103895780638705fcd41461039e5780638da5cb5b146103be57600080fd5b806332cb6b0c1161016457806355f804b31161013e57806355f804b3146103095780636352211e1461032957806369fe0e2d1461034957806370a082311461036957600080fd5b806332cb6b0c146102c157806341275358146102d657806342842e0e146102f657600080fd5b8063095ea7b3116101a0578063095ea7b31461025657806318160ddd1461026b57806323b872dd1461028e5780633013ce29146102a157600080fd5b806301ffc9a7146101c757806306fdde03146101fc578063081812fc1461021e575b600080fd5b3480156101d357600080fd5b506101e76101e2366004611098565b610504565b60405190151581526020015b60405180910390f35b34801561020857600080fd5b50610211610556565b6040516101f39190611105565b34801561022a57600080fd5b5061023e610239366004611118565b6105e8565b6040516001600160a01b0390911681526020016101f3565b61026961026436600461114d565b61062c565b005b34801561027757600080fd5b50600154600054035b6040519081526020016101f3565b61026961029c366004611177565b6106cc565b3480156102ad57600080fd5b5060095461023e906001600160a01b031681565b3480156102cd57600080fd5b50610280607d81565b3480156102e257600080fd5b50600a5461023e906001600160a01b031681565b610269610304366004611177565b610865565b34801561031557600080fd5b506102696103243660046111b3565b610885565b34801561033557600080fd5b5061023e610344366004611118565b61089a565b34801561035557600080fd5b50610269610364366004611118565b6108a5565b34801561037557600080fd5b50610280610384366004611225565b6108b2565b34801561039557600080fd5b50610269610901565b3480156103aa57600080fd5b506102696103b9366004611225565b610915565b3480156103ca57600080fd5b506008546001600160a01b031661023e565b3480156103e857600080fd5b506102696103f73660046111b3565b61093f565b34801561040857600080fd5b50610280600381565b34801561041d57600080fd5b50610211610954565b34801561043257600080fd5b50610269610441366004611118565b610963565b34801561045257600080fd5b5061026961046136600461124e565b610b1f565b61026961047436600461129b565b610b8b565b34801561048557600080fd5b50610211610494366004611118565b610bd5565b3480156104a557600080fd5b50610280600b5481565b3480156104bb57600080fd5b50610211610c59565b3480156104d057600080fd5b506101e76104df366004611377565b610c68565b3480156104f057600080fd5b506102696104ff366004611225565b610c96565b60006301ffc9a760e01b6001600160e01b03198316148061053557506380ac58cd60e01b6001600160e01b03198316145b806105505750635b5e139f60e01b6001600160e01b03198316145b92915050565b606060028054610565906113aa565b80601f0160208091040260200160405190810160405280929190818152602001828054610591906113aa565b80156105de5780601f106105b3576101008083540402835291602001916105de565b820191906000526020600020905b8154815290600101906020018083116105c157829003601f168201915b5050505050905090565b60006105f382610d0c565b610610576040516333d1c03960e21b815260040160405180910390fd5b506000908152600660205260409020546001600160a01b031690565b60006106378261089a565b9050336001600160a01b03821614610670576106538133610c68565b610670576040516367d9dca160e11b815260040160405180910390fd5b60008281526006602052604080822080546001600160a01b0319166001600160a01b0387811691821790925591518593918516917f8c5be1e5ebec7d5bd14f71427d1e84f3dd0314c0f7b2291e5b200ac8c7c3b92591a4505050565b60006106d782610d33565b9050836001600160a01b0316816001600160a01b03161461070a5760405162a1148160e81b815260040160405180910390fd5b60008281526006602052604090208054338082146001600160a01b038816909114176107575761073a8633610c68565b61075757604051632ce44b5f60e11b815260040160405180910390fd5b6001600160a01b03851661077e57604051633a954ecd60e21b815260040160405180910390fd5b801561078957600082555b6001600160a01b038681166000908152600560205260408082208054600019019055918716808252919020805460010190554260a01b17600160e11b17600085815260046020526040812091909155600160e11b8416900361081b576001840160008181526004602052604081205490036108195760005481146108195760008181526004602052604090208490555b505b83856001600160a01b0316876001600160a01b03167fddf252ad1be2c89b69c2b068fc378daa952ba7f163c4a11628f55a4df523b3ef60405160405180910390a45b505050505050565b61088083838360405180602001604052806000815250610b8b565b505050565b61088d610d9a565b600c61088082848361142a565b600061055082610d33565b6108ad610d9a565b600b55565b60006001600160a01b0382166108db576040516323d3ad8160e21b815260040160405180910390fd5b506001600160a01b031660009081526005602052604090205467ffffffffffffffff1690565b610909610d9a565b6109136000610df4565b565b61091d610d9a565b600a80546001600160a01b0319166001600160a01b0392909216919091179055565b610947610d9a565b600d61088082848361142a565b606060038054610565906113aa565b60038111156109b05760405162461bcd60e51b815260206004820152601460248201527322bc31b2b2b239903130ba31b4103634b6b4ba1760611b60448201526064015b60405180910390fd5b607d816109bc60005490565b6109c69190611501565b1115610a0a5760405162461bcd60e51b815260206004820152601360248201527222bc31b2b2b2399036b0bc1039bab838363c9760691b60448201526064016109a7565b600381610a16336108b2565b610a209190611501565b1115610a6e5760405162461bcd60e51b815260206004820152601760248201527f45786365656473206d6178207065722077616c6c65742e00000000000000000060448201526064016109a7565b600954600a54600b546001600160a01b03928316926323b872dd923392911690610a99908690611514565b6040516001600160e01b031960e086901b1681526001600160a01b03938416600482015292909116602483015260448201526064016020604051808303816000875af1158015610aed573d6000803e3d6000fd5b505050506040513d601f19601f82011682018060405250810190610b11919061152b565b50610b1c3382610e46565b50565b3360008181526007602090815260408083206001600160a01b03871680855290835292819020805460ff191686151590811790915590519081529192917f17307eab39ab6107e8899845ad3d59bd9653f200f220920489ca2b5937696c31910160405180910390a35050565b610b968484846106cc565b6001600160a01b0383163b15610bcf57610bb284848484610f44565b610bcf576040516368d2bf6b60e11b815260040160405180910390fd5b50505050565b6060610be082610d0c565b610bfd57604051630a14c4b560e41b815260040160405180910390fd5b6000610c0761102f565b90508051600003610c275760405180602001604052806000815250610c52565b80610c318461103e565b604051602001610c42929190611548565b6040516020818303038152906040525b9392505050565b6060600d8054610565906113aa565b6001600160a01b03918216600090815260076020908152604080832093909416825291909152205460ff1690565b610c9e610d9a565b6001600160a01b038116610d035760405162461bcd60e51b815260206004820152602660248201527f4f776e61626c653a206e6577206f776e657220697320746865207a65726f206160448201526564647265737360d01b60648201526084016109a7565b610b1c81610df4565b6000805482108015610550575050600090815260046020526040902054600160e01b161590565b600081600054811015610d815760008181526004602052604081205490600160e01b82169003610d7f575b80600003610c52575060001901600081815260046020526040902054610d5e565b505b604051636f96cda160e11b815260040160405180910390fd5b6008546001600160a01b031633146109135760405162461bcd60e51b815260206004820181905260248201527f4f776e61626c653a2063616c6c6572206973206e6f7420746865206f776e657260448201526064016109a7565b600880546001600160a01b038381166001600160a01b0319831681179093556040519116919082907f8be0079c531659141344cd1fd0a4f28419497f9722a3daafe3b4186f6b6457e090600090a35050565b6000805490829003610e6b5760405163b562e8dd60e01b815260040160405180910390fd5b6001600160a01b03831660008181526005602090815260408083208054680100000000000000018802019055848352600490915281206001851460e11b4260a01b178317905582840190839083907fddf252ad1be2c89b69c2b068fc378daa952ba7f163c4a11628f55a4df523b3ef8180a4600183015b818114610f1a57808360007fddf252ad1be2c89b69c2b068fc378daa952ba7f163c4a11628f55a4df523b3ef600080a4600101610ee2565b5081600003610f3b57604051622e076360e81b815260040160405180910390fd5b60005550505050565b604051630a85bd0160e11b81526000906001600160a01b0385169063150b7a0290610f79903390899088908890600401611577565b6020604051808303816000875af1925050508015610fb4575060408051601f3d908101601f19168201909252610fb1918101906115b4565b60015b611012573d808015610fe2576040519150601f19603f3d011682016040523d82523d6000602084013e610fe7565b606091505b50805160000361100a576040516368d2bf6b60e11b815260040160405180910390fd5b805181602001fd5b6001600160e01b031916630a85bd0160e11b149050949350505050565b6060600c8054610565906113aa565b606060a06040510180604052602081039150506000815280825b600183039250600a81066030018353600a9004806110585750819003601f19909101908152919050565b6001600160e01b031981168114610b1c57600080fd5b6000602082840312156110aa57600080fd5b8135610c5281611082565b60005b838110156110d05781810151838201526020016110b8565b50506000910152565b600081518084526110f18160208601602086016110b5565b601f01601f19169290920160200192915050565b602081526000610c5260208301846110d9565b60006020828403121561112a57600080fd5b5035919050565b80356001600160a01b038116811461114857600080fd5b919050565b6000806040838503121561116057600080fd5b61116983611131565b946020939093013593505050565b60008060006060848603121561118c57600080fd5b61119584611131565b92506111a360208501611131565b9150604084013590509250925092565b600080602083850312156111c657600080fd5b823567ffffffffffffffff808211156111de57600080fd5b818501915085601f8301126111f257600080fd5b81358181111561120157600080fd5b86602082850101111561121357600080fd5b60209290920196919550909350505050565b60006020828403121561123757600080fd5b610c5282611131565b8015158114610b1c57600080fd5b6000806040838503121561126157600080fd5b61126a83611131565b9150602083013561127a81611240565b809150509250929050565b634e487b7160e01b600052604160045260246000fd5b600080600080608085870312156112b157600080fd5b6112ba85611131565b93506112c860208601611131565b925060408501359150606085013567ffffffffffffffff808211156112ec57600080fd5b818701915087601f83011261130057600080fd5b81358181111561131257611312611285565b604051601f8201601f19908116603f0116810190838211818310171561133a5761133a611285565b816040528281528a602084870101111561135357600080fd5b82602086016020830137600060208483010152809550505050505092959194509250565b6000806040838503121561138a57600080fd5b61139383611131565b91506113a160208401611131565b90509250929050565b600181811c908216806113be57607f821691505b6020821081036113de57634e487b7160e01b600052602260045260246000fd5b50919050565b601f82111561088057600081815260208120601f850160051c8101602086101561140b5750805b601f850160051c820191505b8181101561085d57828155600101611417565b67ffffffffffffffff83111561144257611442611285565b6114568361145083546113aa565b836113e4565b6000601f84116001811461148a57600085156114725750838201355b600019600387901b1c1916600186901b1783556114e4565b600083815260209020601f19861690835b828110156114bb578685013582556020948501946001909201910161149b565b50868210156114d85760001960f88860031b161c19848701351681555b505060018560011b0183555b5050505050565b634e487b7160e01b600052601160045260246000fd5b80820180821115610550576105506114eb565b8082028115828204841417610550576105506114eb565b60006020828403121561153d57600080fd5b8151610c5281611240565b6000835161155a8184602088016110b5565b83519083019061156e8183602088016110b5565b01949350505050565b6001600160a01b03858116825284166020820152604081018390526080606082018190526000906115aa908301846110d9565b9695505050505050565b6000602082840312156115c657600080fd5b8151610c528161108256fea2646970667358221220aa03fddb92a4a2d9a88e9580973467215eedec5325ca5276625355342cfd18fe64736f6c63430008130033697066733a2f2f6261667962656966617a6361787262346f71696d3336667a786c373377736b7174366f7261327032796b6878327a6767706d706c767169736176652f697066733a2f2f6261667962656967336c65326f76326166336273617573626175793232797066326d7136713376796471727771723236366774647a726a797865752f",
  "linkReferences": {},
  "deployedLinkReferences": {}
}