{
  "_format": "hh-sol-artifact-1",
  "contractName": "Plots",
  "sourceName": "contracts/Plots.sol",
  "abi": [
    {
      "inputs": [
        {
          "internalType": "address",
          "name": "_tokenAddress",
          "type": "address"
        },
        {
          "internalType": "address",
          "name": "_feeAddress",
          "type": "address"
        }
      ],
      "stateMutability": "nonpayable",
      "type": "constructor"
    },
    {
      "inputs": [],
      "name": "ApprovalCallerNotOwnerNorApproved",
      "type": "error"
    },
    {
      "inputs": [],
      "name": "ApprovalQueryForNonexistentToken",
      "type": "error"
    },
    {
      "inputs": [],
      "name": "BalanceQueryForZeroAddress",
      "type": "error"
    },
    {
      "inputs": [],
      "name": "MintERC2309QuantityExceedsLimit",
      "type": "error"
    },
    {
      "inputs": [],
      "name": "MintToZeroAddress",
      "type": "error"
    },
    {
      "inputs": [],
      "name": "MintZeroQuantity",
      "type": "error"
    },
    {
      "inputs": [],
      "name": "OwnerQueryForNonexistentToken",
      "type": "error"
    },
    {
      "inputs": [],
      "name": "OwnershipNotInitializedForExtraData",
      "type": "error"
    },
    {
      "inputs": [],
      "name": "TransferCallerNotOwnerNorApproved",
      "type": "error"
    },
    {
      "inputs": [],
      "name": "TransferFromIncorrectOwner",
      "type": "error"
    },
    {
      "inputs": [],
      "name": "TransferToNonERC721ReceiverImplementer",
      "type": "error"
    },
    {
      "inputs": [],
      "name": "TransferToZeroAddress",
      "type": "error"
    },
    {
      "inputs": [],
      "name": "URIQueryForNonexistentToken",
      "type": "error"
    },
    {
      "anonymous": false,
      "inputs": [
        {
          "indexed": true,
          "internalType": "address",
          "name": "owner",
          "type": "address"
        },
        {
          "indexed": true,
          "internalType": "address",
          "name": "approved",
          "type": "address"
        },
        {
          "indexed": true,
          "internalType": "uint256",
          "name": "tokenId",
          "type": "uint256"
        }
      ],
      "name": "Approval",
      "type": "event"
    },
    {
      "anonymous": false,
      "inputs": [
        {
          "indexed": true,
          "internalType": "address",
          "name": "owner",
          "type": "address"
        },
        {
          "indexed": true,
          "internalType": "address",
          "name": "operator",
          "type": "address"
        },
        {
          "indexed": false,
          "internalType": "bool",
          "name": "approved",
          "type": "bool"
        }
      ],
      "name": "ApprovalForAll",
      "type": "event"
    },
    {
      "anonymous": false,
      "inputs": [
        {
          "indexed": true,
          "internalType": "uint256",
          "name": "fromTokenId",
          "type": "uint256"
        },
        {
          "indexed": false,
          "internalType": "uint256",
          "name": "toTokenId",
          "type": "uint256"
        },
        {
          "indexed": true,
          "internalType": "address",
          "name": "from",
          "type": "address"
        },
        {
          "indexed": true,
          "internalType": "address",
          "name": "to",
          "type": "address"
        }
      ],
      "name": "ConsecutiveTransfer",
      "type": "event"
    },
    {
      "anonymous": false,
      "inputs": [
        {
          "indexed": true,
          "internalType": "address",
          "name": "previousOwner",
          "type": "address"
        },
        {
          "indexed": true,
          "internalType": "address",
          "name": "newOwner",
          "type": "address"
        }
      ],
      "name": "OwnershipTransferred",
      "type": "event"
    },
    {
      "anonymous": false,
      "inputs": [
        {
          "indexed": true,
          "internalType": "address",
          "name": "from",
          "type": "address"
        },
        {
          "indexed": true,
          "internalType": "address",
          "name": "to",
          "type": "address"
        },
        {
          "indexed": true,
          "internalType": "uint256",
          "name": "tokenId",
          "type": "uint256"
        }
      ],
      "name": "Transfer",
      "type": "event"
    },
    {
      "inputs": [],
      "name": "BATCH_LIMIT",
      "outputs": [
        {
          "internalType": "uint256",
          "name": "",
          "type": "uint256"
        }
      ],
      "stateMutability": "view",
      "type": "function"
    },
    {
      "inputs": [],
      "name": "MAX_MINT_PER_WALLET",
      "outputs": [
        {
          "internalType": "uint256",
          "name": "",
          "type": "uint256"
        }
      ],
      "stateMutability": "view",
      "type": "function"
    },
    {
      "inputs": [],
      "name": "MAX_SUPPLY",
      "outputs": [
        {
          "internalType": "uint256",
          "name": "",
          "type": "uint256"
        }
      ],
      "stateMutability": "view",
      "type": "function"
    },
    {
      "inputs": [
        {
          "internalType": "address",
          "name": "to",
          "type": "address"
        },
        {
          "internalType": "uint256",
          "name": "tokenId",
          "type": "uint256"
        }
      ],
      "name": "approve",
      "outputs": [],
      "stateMutability": "payable",
      "type": "function"
    },
    {
      "inputs": [
        {
          "internalType": "address",
          "name": "owner",
          "type": "address"
        }
      ],
      "name": "balanceOf",
      "outputs": [
        {
          "internalType": "uint256",
          "name": "",
          "type": "uint256"
        }
      ],
      "stateMutability": "view",
      "type": "function"
    },
    {
      "inputs": [],
      "name": "fee",
      "outputs": [
        {
          "internalType": "uint256",
          "name": "",
          "type": "uint256"
        }
      ],
      "stateMutability": "view",
      "type": "function"
    },
    {
      "inputs": [],
      "name": "feeAddress",
      "outputs": [
        {
          "internalType": "address",
          "name": "",
          "type": "address"
        }
      ],
      "stateMutability": "view",
      "type": "function"
    },
    {
      "inputs": [
        {
          "internalType": "uint256",
          "name": "tokenId",
          "type": "uint256"
        }
      ],
      "name": "getApproved",
      "outputs": [
        {
          "internalType": "address",
          "name": "",
          "type": "address"
        }
      ],
      "stateMutability": "view",
      "type": "function"
    },
    {
      "inputs": [
        {
          "internalType": "address",
          "name": "owner",
          "type": "address"
        },
        {
          "internalType": "address",
          "name": "operator",
          "type": "address"
        }
      ],
      "name": "isApprovedForAll",
      "outputs": [
        {
          "internalType": "bool",
          "name": "",
          "type": "bool"
        }
      ],
      "stateMutability": "view",
      "type": "function"
    },
    {
      "inputs": [
        {
          "internalType": "uint256",
          "name": "quantity",
          "type": "uint256"
        }
      ],
      "name": "mint",
      "outputs": [],
      "stateMutability": "nonpayable",
      "type": "function"
    },
    {
      "inputs": [],
      "name": "name",
      "outputs": [
        {
          "internalType": "string",
          "name": "",
          "type": "string"
        }
      ],
      "stateMutability": "view",
      "type": "function"
    },
    {
      "inputs": [],
      "name": "owner",
      "outputs": [
        {
          "internalType": "address",
          "name": "",
          "type": "address"
        }
      ],
      "stateMutability": "view",
      "type": "function"
    },
    {
      "inputs": [
        {
          "internalType": "uint256",
          "name": "tokenId",
          "type": "uint256"
        }
      ],
      "name": "ownerOf",
      "outputs": [
        {
          "internalType": "address",
          "name": "",
          "type": "address"
        }
      ],
      "stateMutability": "view",
      "type": "function"
    },
    {
      "inputs": [],
      "name": "paymentToken",
      "outputs": [
        {
          "internalType": "contract IERC20",
          "name": "",
          "type": "address"
        }
      ],
      "stateMutability": "view",
      "type": "function"
    },
    {
      "inputs": [],
      "name": "renounceOwnership",
      "outputs": [],
      "stateMutability": "nonpayable",
      "type": "function"
    },
    {
      "inputs": [
        {
          "internalType": "address",
          "name": "from",
          "type": "address"
        },
        {
          "internalType": "address",
          "name": "to",
          "type": "address"
        },
        {
          "internalType": "uint256",
          "name": "tokenId",
          "type": "uint256"
        }
      ],
      "name": "safeTransferFrom",
      "outputs": [],
      "stateMutability": "payable",
      "type": "function"
    },
    {
      "inputs": [
        {
          "internalType": "address",
          "name": "from",
          "type": "address"
        },
        {
          "internalType": "address",
          "name": "to",
          "type": "address"
        },
        {
          "internalType": "uint256",
          "name": "tokenId",
          "type": "uint256"
        },
        {
          "internalType": "bytes",
          "name": "_data",
          "type": "bytes"
        }
      ],
      "name": "safeTransferFrom",
      "outputs": [],
      "stateMutability": "payable",
      "type": "function"
    },
    {
      "inputs": [
        {
          "internalType": "address",
          "name": "operator",
          "type": "address"
        },
        {
          "internalType": "bool",
          "name": "approved",
          "type": "bool"
        }
      ],
      "name": "setApprovalForAll",
      "outputs": [],
      "stateMutability": "nonpayable",
      "type": "function"
    },
    {
      "inputs": [
        {
          "internalType": "uint256",
          "name": "_fee",
          "type": "uint256"
        }
      ],
      "name": "setFee",
      "outputs": [],
      "stateMutability": "nonpayable",
      "type": "function"
    },
    {
      "inputs": [
        {
          "internalType": "address",
          "name": "_feeAddress",
          "type": "address"
        }
      ],
      "name": "setFeeAddress",
      "outputs": [],
      "stateMutability": "nonpayable",
      "type": "function"
    },
    {
      "inputs": [
        {
          "internalType": "bytes4",
          "name": "interfaceId",
          "type": "bytes4"
        }
      ],
      "name": "supportsInterface",
      "outputs": [
        {
          "internalType": "bool",
          "name": "",
          "type": "bool"
        }
      ],
      "stateMutability": "view",
      "type": "function"
    },
    {
      "inputs": [],
      "name": "symbol",
      "outputs": [
        {
          "internalType": "string",
          "name": "",
          "type": "string"
        }
      ],
      "stateMutability": "view",
      "type": "function"
    },
    {
      "inputs": [
        {
          "internalType": "uint256",
          "name": "tokenId",
          "type": "uint256"
        }
      ],
      "name": "tokenURI",
      "outputs": [
        {
          "internalType": "string",
          "name": "",
          "type": "string"
        }
      ],
      "stateMutability": "view",
      "type": "function"
    },
    {
      "inputs": [],
      "name": "totalSupply",
      "outputs": [
        {
          "internalType": "uint256",
          "name": "",
          "type": "uint256"
        }
      ],
      "stateMutability": "view",
      "type": "function"
    },
    {
      "inputs": [
        {
          "internalType": "address",
          "name": "from",
          "type": "address"
        },
        {
          "internalType": "address",
          "name": "to",
          "type": "address"
        },
        {
          "internalType": "uint256",
          "name": "tokenId",
          "type": "uint256"
        }
      ],
      "name": "transferFrom",
      "outputs": [],
      "stateMutability": "payable",
      "type": "function"
    },
    {
      "inputs": [
        {
          "internalType": "address",
          "name": "newOwner",
          "type": "address"
        }
      ],
      "name": "transferOwnership",
      "outputs": [],
      "stateMutability": "nonpayable",
      "type": "function"
    }
  ],
  "bytecode": "0x608060405269d3c21bcecceda1000000600b553480156200001f57600080fd5b50604051620017473803806200174783398101604081905262000042916200018d565b60405180604001604052806005815260200164506c6f747360d81b81525060405180604001604052806004815260200163141313d560e21b81525081600290816200008e91906200026a565b5060036200009d82826200026a565b50506000805550620000af336200010c565b600a80546001600160a01b038084166001600160a01b0319928316179092556009805492851692909116919091179055604080516080810190915260438082526200010491906200170460208301396200015e565b505062000336565b600880546001600160a01b038381166001600160a01b0319831681179093556040519116919082907f8be0079c531659141344cd1fd0a4f28419497f9722a3daafe3b4186f6b6457e090600090a35050565b600c6200016c82826200026a565b5050565b80516001600160a01b03811681146200018857600080fd5b919050565b60008060408385031215620001a157600080fd5b620001ac8362000170565b9150620001bc6020840162000170565b90509250929050565b634e487b7160e01b600052604160045260246000fd5b600181811c90821680620001f057607f821691505b6020821081036200021157634e487b7160e01b600052602260045260246000fd5b50919050565b601f8211156200026557600081815260208120601f850160051c81016020861015620002405750805b601f850160051c820191505b8181101562000261578281556001016200024c565b5050505b505050565b81516001600160401b03811115620002865762000286620001c5565b6200029e81620002978454620001db565b8462000217565b602080601f831160018114620002d65760008415620002bd5750858301515b600019600386901b1c1916600185901b17855562000261565b600085815260208120601f198616915b828110156200030757888601518255948401946001909101908401620002e6565b5085821015620003265787850151600019600388901b60f8161c191681555b5050505050600190811b01905550565b6113be80620003466000396000f3fe6080604052600436106101815760003560e01c8063715018a6116100d1578063a22cb4651161008a578063c87b56dd11610064578063c87b56dd146103f8578063ddca3f4314610418578063e985e9c51461042e578063f2fde38b1461044e57600080fd5b8063a22cb465146103c5578063b19960e61461037b578063b88d4fde146103e557600080fd5b8063715018a6146103285780638705fcd41461033d5780638da5cb5b1461035d5780639559c0bd1461037b57806395d89b4114610390578063a0712d68146103a557600080fd5b80633013ce291161013e57806342842e0e1161011857806342842e0e146102b55780636352211e146102c857806369fe0e2d146102e857806370a082311461030857600080fd5b80633013ce291461026057806332cb6b0c14610280578063412753581461029557600080fd5b806301ffc9a71461018657806306fdde03146101bb578063081812fc146101dd578063095ea7b31461021557806318160ddd1461022a57806323b872dd1461024d575b600080fd5b34801561019257600080fd5b506101a66101a1366004610fc8565b61046e565b60405190151581526020015b60405180910390f35b3480156101c757600080fd5b506101d06104c0565b6040516101b29190611035565b3480156101e957600080fd5b506101fd6101f8366004611048565b610552565b6040516001600160a01b0390911681526020016101b2565b61022861022336600461107d565b610596565b005b34801561023657600080fd5b50600154600054035b6040519081526020016101b2565b61022861025b3660046110a7565b610636565b34801561026c57600080fd5b506009546101fd906001600160a01b031681565b34801561028c57600080fd5b5061023f607d81565b3480156102a157600080fd5b50600a546101fd906001600160a01b031681565b6102286102c33660046110a7565b6107ce565b3480156102d457600080fd5b506101fd6102e3366004611048565b6107ee565b3480156102f457600080fd5b50610228610303366004611048565b6107f9565b34801561031457600080fd5b5061023f6103233660046110e3565b610806565b34801561033457600080fd5b50610228610855565b34801561034957600080fd5b506102286103583660046110e3565b610869565b34801561036957600080fd5b506008546001600160a01b03166101fd565b34801561038757600080fd5b5061023f600381565b34801561039c57600080fd5b506101d0610893565b3480156103b157600080fd5b506102286103c0366004611048565b6108a2565b3480156103d157600080fd5b506102286103e036600461110c565b610a5e565b6102286103f3366004611159565b610aca565b34801561040457600080fd5b506101d0610413366004611048565b610b14565b34801561042457600080fd5b5061023f600b5481565b34801561043a57600080fd5b506101a6610449366004611235565b610b98565b34801561045a57600080fd5b506102286104693660046110e3565b610bc6565b60006301ffc9a760e01b6001600160e01b03198316148061049f57506380ac58cd60e01b6001600160e01b03198316145b806104ba5750635b5e139f60e01b6001600160e01b03198316145b92915050565b6060600280546104cf90611268565b80601f01602080910402602001604051908101604052809291908181526020018280546104fb90611268565b80156105485780601f1061051d57610100808354040283529160200191610548565b820191906000526020600020905b81548152906001019060200180831161052b57829003601f168201915b5050505050905090565b600061055d82610c3c565b61057a576040516333d1c03960e21b815260040160405180910390fd5b506000908152600660205260409020546001600160a01b031690565b60006105a1826107ee565b9050336001600160a01b038216146105da576105bd8133610b98565b6105da576040516367d9dca160e11b815260040160405180910390fd5b60008281526006602052604080822080546001600160a01b0319166001600160a01b0387811691821790925591518593918516917f8c5be1e5ebec7d5bd14f71427d1e84f3dd0314c0f7b2291e5b200ac8c7c3b92591a4505050565b600061064182610c63565b9050836001600160a01b0316816001600160a01b0316146106745760405162a1148160e81b815260040160405180910390fd5b60008281526006602052604090208054338082146001600160a01b038816909114176106c1576106a48633610b98565b6106c157604051632ce44b5f60e11b815260040160405180910390fd5b6001600160a01b0385166106e857604051633a954ecd60e21b815260040160405180910390fd5b80156106f357600082555b6001600160a01b038681166000908152600560205260408082208054600019019055918716808252919020805460010190554260a01b17600160e11b17600085815260046020526040812091909155600160e11b84169003610785576001840160008181526004602052604081205490036107835760005481146107835760008181526004602052604090208490555b505b83856001600160a01b0316876001600160a01b03167fddf252ad1be2c89b69c2b068fc378daa952ba7f163c4a11628f55a4df523b3ef60405160405180910390a4505050505050565b6107e983838360405180602001604052806000815250610aca565b505050565b60006104ba82610c63565b610801610cca565b600b55565b60006001600160a01b03821661082f576040516323d3ad8160e21b815260040160405180910390fd5b506001600160a01b031660009081526005602052604090205467ffffffffffffffff1690565b61085d610cca565b6108676000610d24565b565b610871610cca565b600a80546001600160a01b0319166001600160a01b0392909216919091179055565b6060600380546104cf90611268565b60038111156108ef5760405162461bcd60e51b815260206004820152601460248201527322bc31b2b2b239903130ba31b4103634b6b4ba1760611b60448201526064015b60405180910390fd5b607d816108fb60005490565b61090591906112b8565b11156109495760405162461bcd60e51b815260206004820152601360248201527222bc31b2b2b2399036b0bc1039bab838363c9760691b60448201526064016108e6565b60038161095533610806565b61095f91906112b8565b11156109ad5760405162461bcd60e51b815260206004820152601760248201527f45786365656473206d6178207065722077616c6c65742e00000000000000000060448201526064016108e6565b600954600a54600b546001600160a01b03928316926323b872dd9233929116906109d89086906112cb565b6040516001600160e01b031960e086901b1681526001600160a01b03938416600482015292909116602483015260448201526064016020604051808303816000875af1158015610a2c573d6000803e3d6000fd5b505050506040513d601f19601f82011682018060405250810190610a5091906112e2565b50610a5b3382610d76565b50565b3360008181526007602090815260408083206001600160a01b03871680855290835292819020805460ff191686151590811790915590519081529192917f17307eab39ab6107e8899845ad3d59bd9653f200f220920489ca2b5937696c31910160405180910390a35050565b610ad5848484610636565b6001600160a01b0383163b15610b0e57610af184848484610e74565b610b0e576040516368d2bf6b60e11b815260040160405180910390fd5b50505050565b6060610b1f82610c3c565b610b3c57604051630a14c4b560e41b815260040160405180910390fd5b6000610b46610f5f565b90508051600003610b665760405180602001604052806000815250610b91565b80610b7084610f6e565b604051602001610b819291906112ff565b6040516020818303038152906040525b9392505050565b6001600160a01b03918216600090815260076020908152604080832093909416825291909152205460ff1690565b610bce610cca565b6001600160a01b038116610c335760405162461bcd60e51b815260206004820152602660248201527f4f776e61626c653a206e6577206f776e657220697320746865207a65726f206160448201526564647265737360d01b60648201526084016108e6565b610a5b81610d24565b60008054821080156104ba575050600090815260046020526040902054600160e01b161590565b600081600054811015610cb15760008181526004602052604081205490600160e01b82169003610caf575b80600003610b91575060001901600081815260046020526040902054610c8e565b505b604051636f96cda160e11b815260040160405180910390fd5b6008546001600160a01b031633146108675760405162461bcd60e51b815260206004820181905260248201527f4f776e61626c653a2063616c6c6572206973206e6f7420746865206f776e657260448201526064016108e6565b600880546001600160a01b038381166001600160a01b0319831681179093556040519116919082907f8be0079c531659141344cd1fd0a4f28419497f9722a3daafe3b4186f6b6457e090600090a35050565b6000805490829003610d9b5760405163b562e8dd60e01b815260040160405180910390fd5b6001600160a01b03831660008181526005602090815260408083208054680100000000000000018802019055848352600490915281206001851460e11b4260a01b178317905582840190839083907fddf252ad1be2c89b69c2b068fc378daa952ba7f163c4a11628f55a4df523b3ef8180a4600183015b818114610e4a57808360007fddf252ad1be2c89b69c2b068fc378daa952ba7f163c4a11628f55a4df523b3ef600080a4600101610e12565b5081600003610e6b57604051622e076360e81b815260040160405180910390fd5b60005550505050565b604051630a85bd0160e11b81526000906001600160a01b0385169063150b7a0290610ea990339089908890889060040161132e565b6020604051808303816000875af1925050508015610ee4575060408051601f3d908101601f19168201909252610ee19181019061136b565b60015b610f42573d808015610f12576040519150601f19603f3d011682016040523d82523d6000602084013e610f17565b606091505b508051600003610f3a576040516368d2bf6b60e11b815260040160405180910390fd5b805181602001fd5b6001600160e01b031916630a85bd0160e11b149050949350505050565b6060600c80546104cf90611268565b606060a06040510180604052602081039150506000815280825b600183039250600a81066030018353600a900480610f885750819003601f19909101908152919050565b6001600160e01b031981168114610a5b57600080fd5b600060208284031215610fda57600080fd5b8135610b9181610fb2565b60005b83811015611000578181015183820152602001610fe8565b50506000910152565b60008151808452611021816020860160208601610fe5565b601f01601f19169290920160200192915050565b602081526000610b916020830184611009565b60006020828403121561105a57600080fd5b5035919050565b80356001600160a01b038116811461107857600080fd5b919050565b6000806040838503121561109057600080fd5b61109983611061565b946020939093013593505050565b6000806000606084860312156110bc57600080fd5b6110c584611061565b92506110d360208501611061565b9150604084013590509250925092565b6000602082840312156110f557600080fd5b610b9182611061565b8015158114610a5b57600080fd5b6000806040838503121561111f57600080fd5b61112883611061565b91506020830135611138816110fe565b809150509250929050565b634e487b7160e01b600052604160045260246000fd5b6000806000806080858703121561116f57600080fd5b61117885611061565b935061118660208601611061565b925060408501359150606085013567ffffffffffffffff808211156111aa57600080fd5b818701915087601f8301126111be57600080fd5b8135818111156111d0576111d0611143565b604051601f8201601f19908116603f011681019083821181831017156111f8576111f8611143565b816040528281528a602084870101111561121157600080fd5b82602086016020830137600060208483010152809550505050505092959194509250565b6000806040838503121561124857600080fd5b61125183611061565b915061125f60208401611061565b90509250929050565b600181811c9082168061127c57607f821691505b60208210810361129c57634e487b7160e01b600052602260045260246000fd5b50919050565b634e487b7160e01b600052601160045260246000fd5b808201808211156104ba576104ba6112a2565b80820281158282048414176104ba576104ba6112a2565b6000602082840312156112f457600080fd5b8151610b91816110fe565b60008351611311818460208801610fe5565b835190830190611325818360208801610fe5565b01949350505050565b6001600160a01b038581168252841660208201526040810183905260806060820181905260009061136190830184611009565b9695505050505050565b60006020828403121561137d57600080fd5b8151610b9181610fb256fea2646970667358221220cc2d544a1bacc0bb9557ba5712c292de490d94b05cd78522d62cb4b9d8b23dc964736f6c63430008130033697066733a2f2f62616679626569686d65753763356c776e7369653262757377373778787175666636653774786e7a79793476756f36666f336b33636e6564706d692f",
  "linkReferences": {},
  "deployedLinkReferences": {}
}