{
  "_format": "hh-sol-artifact-1",
  "contractName": "Plots",
  "sourceName": "contracts/Plots.sol",
  "abi": [
    {
      "inputs": [
        {
          "internalType": "address",
          "name": "_tokenAddress",
          "type": "address"
        },
        {
          "internalType": "address",
          "name": "_feeAddress",
          "type": "address"
        }
      ],
      "stateMutability": "nonpayable",
      "type": "constructor"
    },
    {
      "inputs": [],
      "name": "ApprovalCallerNotOwnerNorApproved",
      "type": "error"
    },
    {
      "inputs": [],
      "name": "ApprovalQueryForNonexistentToken",
      "type": "error"
    },
    {
      "inputs": [],
      "name": "BalanceQueryForZeroAddress",
      "type": "error"
    },
    {
      "inputs": [],
      "name": "MintERC2309QuantityExceedsLimit",
      "type": "error"
    },
    {
      "inputs": [],
      "name": "MintToZeroAddress",
      "type": "error"
    },
    {
      "inputs": [],
      "name": "MintZeroQuantity",
      "type": "error"
    },
    {
      "inputs": [],
      "name": "OwnerQueryForNonexistentToken",
      "type": "error"
    },
    {
      "inputs": [],
      "name": "OwnershipNotInitializedForExtraData",
      "type": "error"
    },
    {
      "inputs": [],
      "name": "TransferCallerNotOwnerNorApproved",
      "type": "error"
    },
    {
      "inputs": [],
      "name": "TransferFromIncorrectOwner",
      "type": "error"
    },
    {
      "inputs": [],
      "name": "TransferToNonERC721ReceiverImplementer",
      "type": "error"
    },
    {
      "inputs": [],
      "name": "TransferToZeroAddress",
      "type": "error"
    },
    {
      "inputs": [],
      "name": "URIQueryForNonexistentToken",
      "type": "error"
    },
    {
      "anonymous": false,
      "inputs": [
        {
          "indexed": true,
          "internalType": "address",
          "name": "owner",
          "type": "address"
        },
        {
          "indexed": true,
          "internalType": "address",
          "name": "approved",
          "type": "address"
        },
        {
          "indexed": true,
          "internalType": "uint256",
          "name": "tokenId",
          "type": "uint256"
        }
      ],
      "name": "Approval",
      "type": "event"
    },
    {
      "anonymous": false,
      "inputs": [
        {
          "indexed": true,
          "internalType": "address",
          "name": "owner",
          "type": "address"
        },
        {
          "indexed": true,
          "internalType": "address",
          "name": "operator",
          "type": "address"
        },
        {
          "indexed": false,
          "internalType": "bool",
          "name": "approved",
          "type": "bool"
        }
      ],
      "name": "ApprovalForAll",
      "type": "event"
    },
    {
      "anonymous": false,
      "inputs": [
        {
          "indexed": true,
          "internalType": "uint256",
          "name": "fromTokenId",
          "type": "uint256"
        },
        {
          "indexed": false,
          "internalType": "uint256",
          "name": "toTokenId",
          "type": "uint256"
        },
        {
          "indexed": true,
          "internalType": "address",
          "name": "from",
          "type": "address"
        },
        {
          "indexed": true,
          "internalType": "address",
          "name": "to",
          "type": "address"
        }
      ],
      "name": "ConsecutiveTransfer",
      "type": "event"
    },
    {
      "anonymous": false,
      "inputs": [
        {
          "indexed": true,
          "internalType": "address",
          "name": "previousOwner",
          "type": "address"
        },
        {
          "indexed": true,
          "internalType": "address",
          "name": "newOwner",
          "type": "address"
        }
      ],
      "name": "OwnershipTransferred",
      "type": "event"
    },
    {
      "anonymous": false,
      "inputs": [
        {
          "indexed": true,
          "internalType": "address",
          "name": "from",
          "type": "address"
        },
        {
          "indexed": true,
          "internalType": "address",
          "name": "to",
          "type": "address"
        },
        {
          "indexed": true,
          "internalType": "uint256",
          "name": "tokenId",
          "type": "uint256"
        }
      ],
      "name": "Transfer",
      "type": "event"
    },
    {
      "inputs": [],
      "name": "BATCH_LIMIT",
      "outputs": [
        {
          "internalType": "uint256",
          "name": "",
          "type": "uint256"
        }
      ],
      "stateMutability": "view",
      "type": "function"
    },
    {
      "inputs": [],
      "name": "MAX_MINT_PER_WALLET",
      "outputs": [
        {
          "internalType": "uint256",
          "name": "",
          "type": "uint256"
        }
      ],
      "stateMutability": "view",
      "type": "function"
    },
    {
      "inputs": [],
      "name": "MAX_SUPPLY",
      "outputs": [
        {
          "internalType": "uint256",
          "name": "",
          "type": "uint256"
        }
      ],
      "stateMutability": "view",
      "type": "function"
    },
    {
      "inputs": [
        {
          "internalType": "address",
          "name": "to",
          "type": "address"
        },
        {
          "internalType": "uint256",
          "name": "tokenId",
          "type": "uint256"
        }
      ],
      "name": "approve",
      "outputs": [],
      "stateMutability": "payable",
      "type": "function"
    },
    {
      "inputs": [
        {
          "internalType": "address",
          "name": "owner",
          "type": "address"
        }
      ],
      "name": "balanceOf",
      "outputs": [
        {
          "internalType": "uint256",
          "name": "",
          "type": "uint256"
        }
      ],
      "stateMutability": "view",
      "type": "function"
    },
    {
      "inputs": [],
      "name": "fee",
      "outputs": [
        {
          "internalType": "uint256",
          "name": "",
          "type": "uint256"
        }
      ],
      "stateMutability": "view",
      "type": "function"
    },
    {
      "inputs": [],
      "name": "feeAddress",
      "outputs": [
        {
          "internalType": "address",
          "name": "",
          "type": "address"
        }
      ],
      "stateMutability": "view",
      "type": "function"
    },
    {
      "inputs": [
        {
          "internalType": "uint256",
          "name": "tokenId",
          "type": "uint256"
        }
      ],
      "name": "getApproved",
      "outputs": [
        {
          "internalType": "address",
          "name": "",
          "type": "address"
        }
      ],
      "stateMutability": "view",
      "type": "function"
    },
    {
      "inputs": [
        {
          "internalType": "address",
          "name": "owner",
          "type": "address"
        },
        {
          "internalType": "address",
          "name": "operator",
          "type": "address"
        }
      ],
      "name": "isApprovedForAll",
      "outputs": [
        {
          "internalType": "bool",
          "name": "",
          "type": "bool"
        }
      ],
      "stateMutability": "view",
      "type": "function"
    },
    {
      "inputs": [
        {
          "internalType": "uint256",
          "name": "quantity",
          "type": "uint256"
        }
      ],
      "name": "mint",
      "outputs": [],
      "stateMutability": "nonpayable",
      "type": "function"
    },
    {
      "inputs": [],
      "name": "name",
      "outputs": [
        {
          "internalType": "string",
          "name": "",
          "type": "string"
        }
      ],
      "stateMutability": "view",
      "type": "function"
    },
    {
      "inputs": [],
      "name": "owner",
      "outputs": [
        {
          "internalType": "address",
          "name": "",
          "type": "address"
        }
      ],
      "stateMutability": "view",
      "type": "function"
    },
    {
      "inputs": [
        {
          "internalType": "uint256",
          "name": "tokenId",
          "type": "uint256"
        }
      ],
      "name": "ownerOf",
      "outputs": [
        {
          "internalType": "address",
          "name": "",
          "type": "address"
        }
      ],
      "stateMutability": "view",
      "type": "function"
    },
    {
      "inputs": [],
      "name": "paymentToken",
      "outputs": [
        {
          "internalType": "contract IERC20",
          "name": "",
          "type": "address"
        }
      ],
      "stateMutability": "view",
      "type": "function"
    },
    {
      "inputs": [],
      "name": "renounceOwnership",
      "outputs": [],
      "stateMutability": "nonpayable",
      "type": "function"
    },
    {
      "inputs": [
        {
          "internalType": "address",
          "name": "from",
          "type": "address"
        },
        {
          "internalType": "address",
          "name": "to",
          "type": "address"
        },
        {
          "internalType": "uint256",
          "name": "tokenId",
          "type": "uint256"
        }
      ],
      "name": "safeTransferFrom",
      "outputs": [],
      "stateMutability": "payable",
      "type": "function"
    },
    {
      "inputs": [
        {
          "internalType": "address",
          "name": "from",
          "type": "address"
        },
        {
          "internalType": "address",
          "name": "to",
          "type": "address"
        },
        {
          "internalType": "uint256",
          "name": "tokenId",
          "type": "uint256"
        },
        {
          "internalType": "bytes",
          "name": "_data",
          "type": "bytes"
        }
      ],
      "name": "safeTransferFrom",
      "outputs": [],
      "stateMutability": "payable",
      "type": "function"
    },
    {
      "inputs": [
        {
          "internalType": "address",
          "name": "operator",
          "type": "address"
        },
        {
          "internalType": "bool",
          "name": "approved",
          "type": "bool"
        }
      ],
      "name": "setApprovalForAll",
      "outputs": [],
      "stateMutability": "nonpayable",
      "type": "function"
    },
    {
      "inputs": [
        {
          "internalType": "uint256",
          "name": "_fee",
          "type": "uint256"
        }
      ],
      "name": "setFee",
      "outputs": [],
      "stateMutability": "nonpayable",
      "type": "function"
    },
    {
      "inputs": [
        {
          "internalType": "address",
          "name": "_feeAddress",
          "type": "address"
        }
      ],
      "name": "setFeeAddress",
      "outputs": [],
      "stateMutability": "nonpayable",
      "type": "function"
    },
    {
      "inputs": [
        {
          "internalType": "bytes4",
          "name": "interfaceId",
          "type": "bytes4"
        }
      ],
      "name": "supportsInterface",
      "outputs": [
        {
          "internalType": "bool",
          "name": "",
          "type": "bool"
        }
      ],
      "stateMutability": "view",
      "type": "function"
    },
    {
      "inputs": [],
      "name": "symbol",
      "outputs": [
        {
          "internalType": "string",
          "name": "",
          "type": "string"
        }
      ],
      "stateMutability": "view",
      "type": "function"
    },
    {
      "inputs": [
        {
          "internalType": "uint256",
          "name": "tokenId",
          "type": "uint256"
        }
      ],
      "name": "tokenURI",
      "outputs": [
        {
          "internalType": "string",
          "name": "",
          "type": "string"
        }
      ],
      "stateMutability": "view",
      "type": "function"
    },
    {
      "inputs": [],
      "name": "totalSupply",
      "outputs": [
        {
          "internalType": "uint256",
          "name": "",
          "type": "uint256"
        }
      ],
      "stateMutability": "view",
      "type": "function"
    },
    {
      "inputs": [
        {
          "internalType": "address",
          "name": "from",
          "type": "address"
        },
        {
          "internalType": "address",
          "name": "to",
          "type": "address"
        },
        {
          "internalType": "uint256",
          "name": "tokenId",
          "type": "uint256"
        }
      ],
      "name": "transferFrom",
      "outputs": [],
      "stateMutability": "payable",
      "type": "function"
    },
    {
      "inputs": [
        {
          "internalType": "address",
          "name": "newOwner",
          "type": "address"
        }
      ],
      "name": "transferOwnership",
      "outputs": [],
      "stateMutability": "nonpayable",
      "type": "function"
    },
    {
      "inputs": [
        {
          "internalType": "address",
          "name": "_tokenAddress",
          "type": "address"
        },
        {
          "internalType": "address",
          "name": "_receiverAddress",
          "type": "address"
        },
        {
          "internalType": "uint256",
          "name": "amount",
          "type": "uint256"
        }
      ],
      "name": "withdrawTokens",
      "outputs": [],
      "stateMutability": "nonpayable",
      "type": "function"
    }
  ],
  "bytecode": "0x608060405269d3c21bcecceda1000000600b553480156200001f57600080fd5b50604051620018073803806200180783398101604081905262000042916200018d565b60405180604001604052806005815260200164506c6f747360d81b81525060405180604001604052806004815260200163141313d560e21b81525081600290816200008e91906200026a565b5060036200009d82826200026a565b50506000805550620000af336200010c565b600a80546001600160a01b038084166001600160a01b031992831617909255600980549285169290911691909117905560408051608081019091526043808252620001049190620017c460208301396200015e565b505062000336565b600880546001600160a01b038381166001600160a01b0319831681179093556040519116919082907f8be0079c531659141344cd1fd0a4f28419497f9722a3daafe3b4186f6b6457e090600090a35050565b600c6200016c82826200026a565b5050565b80516001600160a01b03811681146200018857600080fd5b919050565b60008060408385031215620001a157600080fd5b620001ac8362000170565b9150620001bc6020840162000170565b90509250929050565b634e487b7160e01b600052604160045260246000fd5b600181811c90821680620001f057607f821691505b6020821081036200021157634e487b7160e01b600052602260045260246000fd5b50919050565b601f8211156200026557600081815260208120601f850160051c81016020861015620002405750805b601f850160051c820191505b8181101562000261578281556001016200024c565b5050505b505050565b81516001600160401b03811115620002865762000286620001c5565b6200029e81620002978454620001db565b8462000217565b602080601f831160018114620002d65760008415620002bd5750858301515b600019600386901b1c1916600185901b17855562000261565b600085815260208120601f198616915b828110156200030757888601518255948401946001909101908401620002e6565b5085821015620003265787850151600019600388901b60f8161c191681555b5050505050600190811b01905550565b61147e80620003466000396000f3fe60806040526004361061019c5760003560e01c806370a08231116100ec578063a22cb4651161008a578063c87b56dd11610064578063c87b56dd14610433578063ddca3f4314610453578063e985e9c514610469578063f2fde38b1461048957600080fd5b8063a22cb46514610400578063b19960e6146103b6578063b88d4fde1461042057600080fd5b80638da5cb5b116100c65780638da5cb5b146103985780639559c0bd146103b657806395d89b41146103cb578063a0712d68146103e057600080fd5b806370a0823114610343578063715018a6146103635780638705fcd41461037857600080fd5b80633013ce291161015957806342842e0e1161013357806342842e0e146102d05780635e35359e146102e35780636352211e1461030357806369fe0e2d1461032357600080fd5b80633013ce291461027b57806332cb6b0c1461029b57806341275358146102b057600080fd5b806301ffc9a7146101a157806306fdde03146101d6578063081812fc146101f8578063095ea7b31461023057806318160ddd1461024557806323b872dd14610268575b600080fd5b3480156101ad57600080fd5b506101c16101bc366004611088565b6104a9565b60405190151581526020015b60405180910390f35b3480156101e257600080fd5b506101eb6104fb565b6040516101cd91906110f5565b34801561020457600080fd5b50610218610213366004611108565b61058d565b6040516001600160a01b0390911681526020016101cd565b61024361023e36600461113d565b6105d1565b005b34801561025157600080fd5b50600154600054035b6040519081526020016101cd565b610243610276366004611167565b610671565b34801561028757600080fd5b50600954610218906001600160a01b031681565b3480156102a757600080fd5b5061025a607d81565b3480156102bc57600080fd5b50600a54610218906001600160a01b031681565b6102436102de366004611167565b610809565b3480156102ef57600080fd5b506102436102fe366004611167565b610829565b34801561030f57600080fd5b5061021861031e366004611108565b6108ae565b34801561032f57600080fd5b5061024361033e366004611108565b6108b9565b34801561034f57600080fd5b5061025a61035e3660046111a3565b6108c6565b34801561036f57600080fd5b50610243610915565b34801561038457600080fd5b506102436103933660046111a3565b610929565b3480156103a457600080fd5b506008546001600160a01b0316610218565b3480156103c257600080fd5b5061025a600281565b3480156103d757600080fd5b506101eb610953565b3480156103ec57600080fd5b506102436103fb366004611108565b610962565b34801561040c57600080fd5b5061024361041b3660046111cc565b610b1e565b61024361042e366004611219565b610b8a565b34801561043f57600080fd5b506101eb61044e366004611108565b610bd4565b34801561045f57600080fd5b5061025a600b5481565b34801561047557600080fd5b506101c16104843660046112f5565b610c58565b34801561049557600080fd5b506102436104a43660046111a3565b610c86565b60006301ffc9a760e01b6001600160e01b0319831614806104da57506380ac58cd60e01b6001600160e01b03198316145b806104f55750635b5e139f60e01b6001600160e01b03198316145b92915050565b60606002805461050a90611328565b80601f016020809104026020016040519081016040528092919081815260200182805461053690611328565b80156105835780601f1061055857610100808354040283529160200191610583565b820191906000526020600020905b81548152906001019060200180831161056657829003601f168201915b5050505050905090565b600061059882610cfc565b6105b5576040516333d1c03960e21b815260040160405180910390fd5b506000908152600660205260409020546001600160a01b031690565b60006105dc826108ae565b9050336001600160a01b03821614610615576105f88133610c58565b610615576040516367d9dca160e11b815260040160405180910390fd5b60008281526006602052604080822080546001600160a01b0319166001600160a01b0387811691821790925591518593918516917f8c5be1e5ebec7d5bd14f71427d1e84f3dd0314c0f7b2291e5b200ac8c7c3b92591a4505050565b600061067c82610d23565b9050836001600160a01b0316816001600160a01b0316146106af5760405162a1148160e81b815260040160405180910390fd5b60008281526006602052604090208054338082146001600160a01b038816909114176106fc576106df8633610c58565b6106fc57604051632ce44b5f60e11b815260040160405180910390fd5b6001600160a01b03851661072357604051633a954ecd60e21b815260040160405180910390fd5b801561072e57600082555b6001600160a01b038681166000908152600560205260408082208054600019019055918716808252919020805460010190554260a01b17600160e11b17600085815260046020526040812091909155600160e11b841690036107c0576001840160008181526004602052604081205490036107be5760005481146107be5760008181526004602052604090208490555b505b83856001600160a01b0316876001600160a01b03167fddf252ad1be2c89b69c2b068fc378daa952ba7f163c4a11628f55a4df523b3ef60405160405180910390a4505050505050565b61082483838360405180602001604052806000815250610b8a565b505050565b610831610d8a565b60405163a9059cbb60e01b81526001600160a01b0383811660048301526024820183905284919082169063a9059cbb906044016020604051808303816000875af1158015610883573d6000803e3d6000fd5b505050506040513d601f19601f820116820180604052508101906108a79190611362565b5050505050565b60006104f582610d23565b6108c1610d8a565b600b55565b60006001600160a01b0382166108ef576040516323d3ad8160e21b815260040160405180910390fd5b506001600160a01b031660009081526005602052604090205467ffffffffffffffff1690565b61091d610d8a565b6109276000610de4565b565b610931610d8a565b600a80546001600160a01b0319166001600160a01b0392909216919091179055565b60606003805461050a90611328565b60028111156109af5760405162461bcd60e51b815260206004820152601460248201527322bc31b2b2b239903130ba31b4103634b6b4ba1760611b60448201526064015b60405180910390fd5b607d816109bb60005490565b6109c59190611395565b1115610a095760405162461bcd60e51b815260206004820152601360248201527222bc31b2b2b2399036b0bc1039bab838363c9760691b60448201526064016109a6565b600281610a15336108c6565b610a1f9190611395565b1115610a6d5760405162461bcd60e51b815260206004820152601760248201527f45786365656473206d6178207065722077616c6c65742e00000000000000000060448201526064016109a6565b600954600a54600b546001600160a01b03928316926323b872dd923392911690610a989086906113a8565b6040516001600160e01b031960e086901b1681526001600160a01b03938416600482015292909116602483015260448201526064016020604051808303816000875af1158015610aec573d6000803e3d6000fd5b505050506040513d601f19601f82011682018060405250810190610b109190611362565b50610b1b3382610e36565b50565b3360008181526007602090815260408083206001600160a01b03871680855290835292819020805460ff191686151590811790915590519081529192917f17307eab39ab6107e8899845ad3d59bd9653f200f220920489ca2b5937696c31910160405180910390a35050565b610b95848484610671565b6001600160a01b0383163b15610bce57610bb184848484610f34565b610bce576040516368d2bf6b60e11b815260040160405180910390fd5b50505050565b6060610bdf82610cfc565b610bfc57604051630a14c4b560e41b815260040160405180910390fd5b6000610c0661101f565b90508051600003610c265760405180602001604052806000815250610c51565b80610c308461102e565b604051602001610c419291906113bf565b6040516020818303038152906040525b9392505050565b6001600160a01b03918216600090815260076020908152604080832093909416825291909152205460ff1690565b610c8e610d8a565b6001600160a01b038116610cf35760405162461bcd60e51b815260206004820152602660248201527f4f776e61626c653a206e6577206f776e657220697320746865207a65726f206160448201526564647265737360d01b60648201526084016109a6565b610b1b81610de4565b60008054821080156104f5575050600090815260046020526040902054600160e01b161590565b600081600054811015610d715760008181526004602052604081205490600160e01b82169003610d6f575b80600003610c51575060001901600081815260046020526040902054610d4e565b505b604051636f96cda160e11b815260040160405180910390fd5b6008546001600160a01b031633146109275760405162461bcd60e51b815260206004820181905260248201527f4f776e61626c653a2063616c6c6572206973206e6f7420746865206f776e657260448201526064016109a6565b600880546001600160a01b038381166001600160a01b0319831681179093556040519116919082907f8be0079c531659141344cd1fd0a4f28419497f9722a3daafe3b4186f6b6457e090600090a35050565b6000805490829003610e5b5760405163b562e8dd60e01b815260040160405180910390fd5b6001600160a01b03831660008181526005602090815260408083208054680100000000000000018802019055848352600490915281206001851460e11b4260a01b178317905582840190839083907fddf252ad1be2c89b69c2b068fc378daa952ba7f163c4a11628f55a4df523b3ef8180a4600183015b818114610f0a57808360007fddf252ad1be2c89b69c2b068fc378daa952ba7f163c4a11628f55a4df523b3ef600080a4600101610ed2565b5081600003610f2b57604051622e076360e81b815260040160405180910390fd5b60005550505050565b604051630a85bd0160e11b81526000906001600160a01b0385169063150b7a0290610f699033908990889088906004016113ee565b6020604051808303816000875af1925050508015610fa4575060408051601f3d908101601f19168201909252610fa19181019061142b565b60015b611002573d808015610fd2576040519150601f19603f3d011682016040523d82523d6000602084013e610fd7565b606091505b508051600003610ffa576040516368d2bf6b60e11b815260040160405180910390fd5b805181602001fd5b6001600160e01b031916630a85bd0160e11b149050949350505050565b6060600c805461050a90611328565b606060a06040510180604052602081039150506000815280825b600183039250600a81066030018353600a9004806110485750819003601f19909101908152919050565b6001600160e01b031981168114610b1b57600080fd5b60006020828403121561109a57600080fd5b8135610c5181611072565b60005b838110156110c05781810151838201526020016110a8565b50506000910152565b600081518084526110e18160208601602086016110a5565b601f01601f19169290920160200192915050565b602081526000610c5160208301846110c9565b60006020828403121561111a57600080fd5b5035919050565b80356001600160a01b038116811461113857600080fd5b919050565b6000806040838503121561115057600080fd5b61115983611121565b946020939093013593505050565b60008060006060848603121561117c57600080fd5b61118584611121565b925061119360208501611121565b9150604084013590509250925092565b6000602082840312156111b557600080fd5b610c5182611121565b8015158114610b1b57600080fd5b600080604083850312156111df57600080fd5b6111e883611121565b915060208301356111f8816111be565b809150509250929050565b634e487b7160e01b600052604160045260246000fd5b6000806000806080858703121561122f57600080fd5b61123885611121565b935061124660208601611121565b925060408501359150606085013567ffffffffffffffff8082111561126a57600080fd5b818701915087601f83011261127e57600080fd5b81358181111561129057611290611203565b604051601f8201601f19908116603f011681019083821181831017156112b8576112b8611203565b816040528281528a60208487010111156112d157600080fd5b82602086016020830137600060208483010152809550505050505092959194509250565b6000806040838503121561130857600080fd5b61131183611121565b915061131f60208401611121565b90509250929050565b600181811c9082168061133c57607f821691505b60208210810361135c57634e487b7160e01b600052602260045260246000fd5b50919050565b60006020828403121561137457600080fd5b8151610c51816111be565b634e487b7160e01b600052601160045260246000fd5b808201808211156104f5576104f561137f565b80820281158282048414176104f5576104f561137f565b600083516113d18184602088016110a5565b8351908301906113e58183602088016110a5565b01949350505050565b6001600160a01b0385811682528416602082015260408101839052608060608201819052600090611421908301846110c9565b9695505050505050565b60006020828403121561143d57600080fd5b8151610c518161107256fea264697066735822122083684d411f9e60fc1016a45e2c35e9dc1e8c341e7b110c86568bd84f9db3e4c264736f6c63430008130033697066733a2f2f62616679626569686d65753763356c776e7369653262757377373778787175666636653774786e7a79793476756f36666f336b33636e6564706d692f",
  "linkReferences": {},
  "deployedLinkReferences": {}
}